{
  "_format": "hh-sol-artifact-1",
  "contractName": "MumbaiERC1155NFT",
  "sourceName": "contracts/MumbaiERC1155NFT.sol",
  "abi": [
    {
      "inputs": [],
      "stateMutability": "nonpayable",
      "type": "constructor"
    },
    {
      "anonymous": false,
      "inputs": [
        {
          "indexed": true,
          "internalType": "address",
          "name": "account",
          "type": "address"
        },
        {
          "indexed": true,
          "internalType": "address",
          "name": "operator",
          "type": "address"
        },
        {
          "indexed": false,
          "internalType": "bool",
          "name": "approved",
          "type": "bool"
        }
      ],
      "name": "ApprovalForAll",
      "type": "event"
    },
    {
      "anonymous": false,
      "inputs": [
        {
          "indexed": true,
          "internalType": "address",
          "name": "operator",
          "type": "address"
        },
        {
          "indexed": true,
          "internalType": "address",
          "name": "from",
          "type": "address"
        },
        {
          "indexed": true,
          "internalType": "address",
          "name": "to",
          "type": "address"
        },
        {
          "indexed": false,
          "internalType": "uint256[]",
          "name": "ids",
          "type": "uint256[]"
        },
        {
          "indexed": false,
          "internalType": "uint256[]",
          "name": "values",
          "type": "uint256[]"
        }
      ],
      "name": "TransferBatch",
      "type": "event"
    },
    {
      "anonymous": false,
      "inputs": [
        {
          "indexed": true,
          "internalType": "address",
          "name": "operator",
          "type": "address"
        },
        {
          "indexed": true,
          "internalType": "address",
          "name": "from",
          "type": "address"
        },
        {
          "indexed": true,
          "internalType": "address",
          "name": "to",
          "type": "address"
        },
        {
          "indexed": false,
          "internalType": "uint256",
          "name": "id",
          "type": "uint256"
        },
        {
          "indexed": false,
          "internalType": "uint256",
          "name": "value",
          "type": "uint256"
        }
      ],
      "name": "TransferSingle",
      "type": "event"
    },
    {
      "anonymous": false,
      "inputs": [
        {
          "indexed": false,
          "internalType": "string",
          "name": "value",
          "type": "string"
        },
        {
          "indexed": true,
          "internalType": "uint256",
          "name": "id",
          "type": "uint256"
        }
      ],
      "name": "URI",
      "type": "event"
    },
    {
      "inputs": [],
      "name": "Ball",
      "outputs": [
        {
          "internalType": "uint256",
          "name": "",
          "type": "uint256"
        }
      ],
      "stateMutability": "view",
      "type": "function"
    },
    {
      "inputs": [],
      "name": "BallPrice",
      "outputs": [
        {
          "internalType": "int256",
          "name": "",
          "type": "int256"
        }
      ],
      "stateMutability": "view",
      "type": "function"
    },
    {
      "inputs": [],
      "name": "PRICE",
      "outputs": [
        {
          "internalType": "uint256",
          "name": "",
          "type": "uint256"
        }
      ],
      "stateMutability": "view",
      "type": "function"
    },
    {
      "inputs": [],
      "name": "Shorts",
      "outputs": [
        {
          "internalType": "uint256",
          "name": "",
          "type": "uint256"
        }
      ],
      "stateMutability": "view",
      "type": "function"
    },
    {
      "inputs": [],
      "name": "ShortsPrice",
      "outputs": [
        {
          "internalType": "int256",
          "name": "",
          "type": "int256"
        }
      ],
      "stateMutability": "view",
      "type": "function"
    },
    {
      "inputs": [
        {
          "internalType": "address",
          "name": "account",
          "type": "address"
        },
        {
          "internalType": "uint256",
          "name": "id",
          "type": "uint256"
        }
      ],
      "name": "balanceOf",
      "outputs": [
        {
          "internalType": "uint256",
          "name": "",
          "type": "uint256"
        }
      ],
      "stateMutability": "view",
      "type": "function"
    },
    {
      "inputs": [
        {
          "internalType": "address[]",
          "name": "accounts",
          "type": "address[]"
        },
        {
          "internalType": "uint256[]",
          "name": "ids",
          "type": "uint256[]"
        }
      ],
      "name": "balanceOfBatch",
      "outputs": [
        {
          "internalType": "uint256[]",
          "name": "",
          "type": "uint256[]"
        }
      ],
      "stateMutability": "view",
      "type": "function"
    },
    {
      "inputs": [],
      "name": "getBallPrice",
      "outputs": [
        {
          "internalType": "int256",
          "name": "",
          "type": "int256"
        }
      ],
      "stateMutability": "pure",
      "type": "function"
    },
    {
      "inputs": [],
      "name": "getShortsPrice",
      "outputs": [
        {
          "internalType": "int256",
          "name": "",
          "type": "int256"
        }
      ],
      "stateMutability": "pure",
      "type": "function"
    },
    {
      "inputs": [
        {
          "internalType": "address",
          "name": "account",
          "type": "address"
        },
        {
          "internalType": "address",
          "name": "operator",
          "type": "address"
        }
      ],
      "name": "isApprovedForAll",
      "outputs": [
        {
          "internalType": "bool",
          "name": "",
          "type": "bool"
        }
      ],
      "stateMutability": "view",
      "type": "function"
    },
    {
      "inputs": [],
      "name": "mintBall",
      "outputs": [],
      "stateMutability": "payable",
      "type": "function"
    },
    {
      "inputs": [],
      "name": "mintShorts",
      "outputs": [],
      "stateMutability": "payable",
      "type": "function"
    },
    {
      "inputs": [],
      "name": "name",
      "outputs": [
        {
          "internalType": "string",
          "name": "",
          "type": "string"
        }
      ],
      "stateMutability": "view",
      "type": "function"
    },
    {
      "inputs": [],
      "name": "price",
      "outputs": [
        {
          "internalType": "int256",
          "name": "",
          "type": "int256"
        }
      ],
      "stateMutability": "view",
      "type": "function"
    },
    {
      "inputs": [
        {
          "internalType": "address",
          "name": "from",
          "type": "address"
        },
        {
          "internalType": "address",
          "name": "to",
          "type": "address"
        },
        {
          "internalType": "uint256[]",
          "name": "ids",
          "type": "uint256[]"
        },
        {
          "internalType": "uint256[]",
          "name": "amounts",
          "type": "uint256[]"
        },
        {
          "internalType": "bytes",
          "name": "data",
          "type": "bytes"
        }
      ],
      "name": "safeBatchTransferFrom",
      "outputs": [],
      "stateMutability": "nonpayable",
      "type": "function"
    },
    {
      "inputs": [
        {
          "internalType": "address",
          "name": "from",
          "type": "address"
        },
        {
          "internalType": "address",
          "name": "to",
          "type": "address"
        },
        {
          "internalType": "uint256",
          "name": "id",
          "type": "uint256"
        },
        {
          "internalType": "uint256",
          "name": "amount",
          "type": "uint256"
        },
        {
          "internalType": "bytes",
          "name": "data",
          "type": "bytes"
        }
      ],
      "name": "safeTransferFrom",
      "outputs": [],
      "stateMutability": "nonpayable",
      "type": "function"
    },
    {
      "inputs": [
        {
          "internalType": "address",
          "name": "operator",
          "type": "address"
        },
        {
          "internalType": "bool",
          "name": "approved",
          "type": "bool"
        }
      ],
      "name": "setApprovalForAll",
      "outputs": [],
      "stateMutability": "nonpayable",
      "type": "function"
    },
    {
      "inputs": [
        {
          "internalType": "bytes4",
          "name": "interfaceId",
          "type": "bytes4"
        }
      ],
      "name": "supportsInterface",
      "outputs": [
        {
          "internalType": "bool",
          "name": "",
          "type": "bool"
        }
      ],
      "stateMutability": "view",
      "type": "function"
    },
    {
      "inputs": [
        {
          "internalType": "uint256",
          "name": "_tokenid",
          "type": "uint256"
        }
      ],
      "name": "uri",
      "outputs": [
        {
          "internalType": "string",
          "name": "",
          "type": "string"
        }
      ],
      "stateMutability": "pure",
      "type": "function"
    }
  ],
  "bytecode": "0x60806040526040518060400160405280600e81526020017f576562334261736b657462616c6c000000000000000000000000000000000000815250600390816200004a91906200031a565b503480156200005857600080fd5b506040518060a0016040528060628152602001620034206062913962000084816200008b60201b60201c565b5062000401565b80600290816200009c91906200031a565b5050565b600081519050919050565b7f4e487b7100000000000000000000000000000000000000000000000000000000600052604160045260246000fd5b7f4e487b7100000000000000000000000000000000000000000000000000000000600052602260045260246000fd5b600060028204905060018216806200012257607f821691505b602082108103620001385762000137620000da565b5b50919050565b60008190508160005260206000209050919050565b60006020601f8301049050919050565b600082821b905092915050565b600060088302620001a27fffffffffffffffffffffffffffffffffffffffffffffffffffffffffffffffff8262000163565b620001ae868362000163565b95508019841693508086168417925050509392505050565b6000819050919050565b6000819050919050565b6000620001fb620001f5620001ef84620001c6565b620001d0565b620001c6565b9050919050565b6000819050919050565b6200021783620001da565b6200022f620002268262000202565b84845462000170565b825550505050565b600090565b6200024662000237565b620002538184846200020c565b505050565b5b818110156200027b576200026f6000826200023c565b60018101905062000259565b5050565b601f821115620002ca5762000294816200013e565b6200029f8462000153565b81016020851015620002af578190505b620002c7620002be8562000153565b83018262000258565b50505b505050565b600082821c905092915050565b6000620002ef60001984600802620002cf565b1980831691505092915050565b60006200030a8383620002dc565b9150826002028217905092915050565b6200032582620000a0565b67ffffffffffffffff811115620003415762000340620000ab565b5b6200034d825462000109565b6200035a8282856200027f565b600060209050601f8311600181146200039257600084156200037d578287015190505b620003898582620002fc565b865550620003f9565b601f198416620003a2866200013e565b60005b82811015620003cc57848901518255600182019150602085019450602081019050620003a5565b86831015620003ec5784890151620003e8601f891682620002dc565b8355505b6001600288020188555050505b505050505050565b61300f80620004116000396000f3fe6080604052600436106101135760003560e01c80635f681f02116100a0578063b08c9d7b11610064578063b08c9d7b14610374578063c09625bc1461039f578063e985e9c5146103ca578063f242432a14610407578063f288e2241461043057610113565b80635f681f021461029f5780638d859f3e146102ca5780638ef49838146102f5578063a035b1fe14610320578063a22cb4651461034b57610113565b80630e89341c116100e75780630e89341c146101e857806317a51a9b146102255780632c496a371461022f5780632eb2c2d6146102395780634e1273f41461026257610113565b8062fdd58e1461011857806301ffc9a71461015557806306fdde03146101925780630c0f485b146101bd575b600080fd5b34801561012457600080fd5b5061013f600480360381019061013a9190611b8a565b61045b565b60405161014c9190611bd9565b60405180910390f35b34801561016157600080fd5b5061017c60048036038101906101779190611c4c565b610523565b6040516101899190611c94565b60405180910390f35b34801561019e57600080fd5b506101a7610605565b6040516101b49190611d3f565b60405180910390f35b3480156101c957600080fd5b506101d2610693565b6040516101df9190611bd9565b60405180910390f35b3480156101f457600080fd5b5061020f600480360381019061020a9190611d61565b610698565b60405161021c9190611d3f565b60405180910390f35b61022d6106c9565b005b610237610731565b005b34801561024557600080fd5b50610260600480360381019061025b9190611f8b565b61079a565b005b34801561026e57600080fd5b506102896004803603810190610284919061211d565b61083b565b6040516102969190612253565b60405180910390f35b3480156102ab57600080fd5b506102b4610954565b6040516102c1919061228e565b60405180910390f35b3480156102d657600080fd5b506102df610963565b6040516102ec9190611bd9565b60405180910390f35b34801561030157600080fd5b5061030a61096e565b604051610317919061228e565b60405180910390f35b34801561032c57600080fd5b5061033561097d565b604051610342919061228e565b60405180910390f35b34801561035757600080fd5b50610372600480360381019061036d91906122d5565b610986565b005b34801561038057600080fd5b5061038961099c565b6040516103969190611bd9565b60405180910390f35b3480156103ab57600080fd5b506103b46109a1565b6040516103c1919061228e565b60405180910390f35b3480156103d657600080fd5b506103f160048036038101906103ec9190612315565b6109c4565b6040516103fe9190611c94565b60405180910390f35b34801561041357600080fd5b5061042e60048036038101906104299190612355565b610a58565b005b34801561043c57600080fd5b50610445610af9565b604051610452919061228e565b60405180910390f35b60008073ffffffffffffffffffffffffffffffffffffffff168373ffffffffffffffffffffffffffffffffffffffff16036104cb576040517f08c379a00000000000000000000000000000000000000000000000000000000081526004016104c29061245e565b60405180910390fd5b60008083815260200190815260200160002060008473ffffffffffffffffffffffffffffffffffffffff1673ffffffffffffffffffffffffffffffffffffffff16815260200190815260200160002054905092915050565b60007fd9b67a26000000000000000000000000000000000000000000000000000000007bffffffffffffffffffffffffffffffffffffffffffffffffffffffff1916827bffffffffffffffffffffffffffffffffffffffffffffffffffffffff191614806105ee57507f0e89341c000000000000000000000000000000000000000000000000000000007bffffffffffffffffffffffffffffffffffffffffffffffffffffffff1916827bffffffffffffffffffffffffffffffffffffffffffffffffffffffff1916145b806105fe57506105fd82610b1c565b5b9050919050565b60038054610612906124ad565b80601f016020809104026020016040519081016040528092919081815260200182805461063e906124ad565b801561068b5780601f106106605761010080835404028352916020019161068b565b820191906000526020600020905b81548152906001019060200180831161066e57829003601f168201915b505050505081565b600081565b60606106a382610b86565b6040516020016106b391906125fe565b6040516020818303038152906040529050919050565b6106d1610af9565b341215610713576040517f08c379a000000000000000000000000000000000000000000000000000000000815260040161070a9061269d565b60405180910390fd5b61072f3360018060405180602001604052806000815250610c54565b565b6107396109a1565b34121561077b576040517f08c379a00000000000000000000000000000000000000000000000000000000081526004016107729061269d565b60405180910390fd5b610798336000600160405180602001604052806000815250610c54565b565b6107a2610e04565b73ffffffffffffffffffffffffffffffffffffffff168573ffffffffffffffffffffffffffffffffffffffff1614806107e857506107e7856107e2610e04565b6109c4565b5b610827576040517f08c379a000000000000000000000000000000000000000000000000000000000815260040161081e9061272f565b60405180910390fd5b6108348585858585610e0c565b5050505050565b60608151835114610881576040517f08c379a0000000000000000000000000000000000000000000000000000000008152600401610878906127c1565b60405180910390fd5b6000835167ffffffffffffffff81111561089e5761089d611d93565b5b6040519080825280602002602001820160405280156108cc5781602001602082028036833780820191505090505b50905060005b8451811015610949576109198582815181106108f1576108f06127e1565b5b602002602001015185838151811061090c5761090b6127e1565b5b602002602001015161045b565b82828151811061092c5761092b6127e1565b5b602002602001018181525050806109429061283f565b90506108d2565b508091505092915050565b6a100000000000000000000081565b662386f26fc1000081565b6a04085ccd059a83bd8e400081565b641c12f9766181565b610998610991610e04565b838361112d565b5050565b600181565b6000641c12f976616a10000000000000000000006109bf91906128b6565b905090565b6000600160008473ffffffffffffffffffffffffffffffffffffffff1673ffffffffffffffffffffffffffffffffffffffff16815260200190815260200160002060008373ffffffffffffffffffffffffffffffffffffffff1673ffffffffffffffffffffffffffffffffffffffff16815260200190815260200160002060009054906101000a900460ff16905092915050565b610a60610e04565b73ffffffffffffffffffffffffffffffffffffffff168573ffffffffffffffffffffffffffffffffffffffff161480610aa65750610aa585610aa0610e04565b6109c4565b5b610ae5576040517f08c379a0000000000000000000000000000000000000000000000000000000008152600401610adc9061272f565b60405180910390fd5b610af28585858585611299565b5050505050565b6000641c12f976616a04085ccd059a83bd8e4000610b1791906128b6565b905090565b60007f01ffc9a7000000000000000000000000000000000000000000000000000000007bffffffffffffffffffffffffffffffffffffffffffffffffffffffff1916827bffffffffffffffffffffffffffffffffffffffffffffffffffffffff1916149050919050565b606060006001610b9584611534565b01905060008167ffffffffffffffff811115610bb457610bb3611d93565b5b6040519080825280601f01601f191660200182016040528015610be65781602001600182028036833780820191505090505b509050600082602001820190505b600115610c49578080600190039150507f3031323334353637383961626364656600000000000000000000000000000000600a86061a8153600a8581610c3d57610c3c612887565b5b04945060008503610bf4575b819350505050919050565b600073ffffffffffffffffffffffffffffffffffffffff168473ffffffffffffffffffffffffffffffffffffffff1603610cc3576040517f08c379a0000000000000000000000000000000000000000000000000000000008152600401610cba90612992565b60405180910390fd5b6000610ccd610e04565b90506000610cda85611687565b90506000610ce785611687565b9050610cf883600089858589611701565b8460008088815260200190815260200160002060008973ffffffffffffffffffffffffffffffffffffffff1673ffffffffffffffffffffffffffffffffffffffff1681526020019081526020016000206000828254610d5791906129b2565b925050819055508673ffffffffffffffffffffffffffffffffffffffff16600073ffffffffffffffffffffffffffffffffffffffff168473ffffffffffffffffffffffffffffffffffffffff167fc3d58168c5ae7397731d063d5bbf3d657854427343f4c083240f7aacaa2d0f628989604051610dd59291906129e6565b60405180910390a4610dec83600089858589611709565b610dfb83600089898989611711565b50505050505050565b600033905090565b8151835114610e50576040517f08c379a0000000000000000000000000000000000000000000000000000000008152600401610e4790612a81565b60405180910390fd5b600073ffffffffffffffffffffffffffffffffffffffff168473ffffffffffffffffffffffffffffffffffffffff1603610ebf576040517f08c379a0000000000000000000000000000000000000000000000000000000008152600401610eb690612b13565b60405180910390fd5b6000610ec9610e04565b9050610ed9818787878787611701565b60005b845181101561108a576000858281518110610efa57610ef96127e1565b5b602002602001015190506000858381518110610f1957610f186127e1565b5b60200260200101519050600080600084815260200190815260200160002060008b73ffffffffffffffffffffffffffffffffffffffff1673ffffffffffffffffffffffffffffffffffffffff16815260200190815260200160002054905081811015610fba576040517f08c379a0000000000000000000000000000000000000000000000000000000008152600401610fb190612ba5565b60405180910390fd5b81810360008085815260200190815260200160002060008c73ffffffffffffffffffffffffffffffffffffffff1673ffffffffffffffffffffffffffffffffffffffff168152602001908152602001600020819055508160008085815260200190815260200160002060008b73ffffffffffffffffffffffffffffffffffffffff1673ffffffffffffffffffffffffffffffffffffffff168152602001908152602001600020600082825461106f91906129b2565b92505081905550505050806110839061283f565b9050610edc565b508473ffffffffffffffffffffffffffffffffffffffff168673ffffffffffffffffffffffffffffffffffffffff168273ffffffffffffffffffffffffffffffffffffffff167f4a39dc06d4c0dbc64b70af90fd698a233a518aa5d07e595d983b8c0526c8f7fb8787604051611101929190612bc5565b60405180910390a4611117818787878787611709565b6111258187878787876118e8565b505050505050565b8173ffffffffffffffffffffffffffffffffffffffff168373ffffffffffffffffffffffffffffffffffffffff160361119b576040517f08c379a000000000000000000000000000000000000000000000000000000000815260040161119290612c6e565b60405180910390fd5b80600160008573ffffffffffffffffffffffffffffffffffffffff1673ffffffffffffffffffffffffffffffffffffffff16815260200190815260200160002060008473ffffffffffffffffffffffffffffffffffffffff1673ffffffffffffffffffffffffffffffffffffffff16815260200190815260200160002060006101000a81548160ff0219169083151502179055508173ffffffffffffffffffffffffffffffffffffffff168373ffffffffffffffffffffffffffffffffffffffff167f17307eab39ab6107e8899845ad3d59bd9653f200f220920489ca2b5937696c318360405161128c9190611c94565b60405180910390a3505050565b600073ffffffffffffffffffffffffffffffffffffffff168473ffffffffffffffffffffffffffffffffffffffff1603611308576040517f08c379a00000000000000000000000000000000000000000000000000000000081526004016112ff90612b13565b60405180910390fd5b6000611312610e04565b9050600061131f85611687565b9050600061132c85611687565b905061133c838989858589611701565b600080600088815260200190815260200160002060008a73ffffffffffffffffffffffffffffffffffffffff1673ffffffffffffffffffffffffffffffffffffffff168152602001908152602001600020549050858110156113d3576040517f08c379a00000000000000000000000000000000000000000000000000000000081526004016113ca90612ba5565b60405180910390fd5b85810360008089815260200190815260200160002060008b73ffffffffffffffffffffffffffffffffffffffff1673ffffffffffffffffffffffffffffffffffffffff168152602001908152602001600020819055508560008089815260200190815260200160002060008a73ffffffffffffffffffffffffffffffffffffffff1673ffffffffffffffffffffffffffffffffffffffff168152602001908152602001600020600082825461148891906129b2565b925050819055508773ffffffffffffffffffffffffffffffffffffffff168973ffffffffffffffffffffffffffffffffffffffff168573ffffffffffffffffffffffffffffffffffffffff167fc3d58168c5ae7397731d063d5bbf3d657854427343f4c083240f7aacaa2d0f628a8a6040516115059291906129e6565b60405180910390a461151b848a8a86868a611709565b611529848a8a8a8a8a611711565b505050505050505050565b600080600090507a184f03e93ff9f4daa797ed6e38ed64bf6a1f0100000000000000008310611592577a184f03e93ff9f4daa797ed6e38ed64bf6a1f010000000000000000838161158857611587612887565b5b0492506040810190505b6d04ee2d6d415b85acef810000000083106115cf576d04ee2d6d415b85acef810000000083816115c5576115c4612887565b5b0492506020810190505b662386f26fc1000083106115fe57662386f26fc1000083816115f4576115f3612887565b5b0492506010810190505b6305f5e1008310611627576305f5e100838161161d5761161c612887565b5b0492506008810190505b612710831061164c57612710838161164257611641612887565b5b0492506004810190505b6064831061166f576064838161166557611664612887565b5b0492506002810190505b600a831061167e576001810190505b80915050919050565b60606000600167ffffffffffffffff8111156116a6576116a5611d93565b5b6040519080825280602002602001820160405280156116d45781602001602082028036833780820191505090505b50905082816000815181106116ec576116eb6127e1565b5b60200260200101818152505080915050919050565b505050505050565b505050505050565b6117308473ffffffffffffffffffffffffffffffffffffffff16611abf565b156118e0578373ffffffffffffffffffffffffffffffffffffffff1663f23a6e6187878686866040518663ffffffff1660e01b8152600401611776959493929190612cf2565b6020604051808303816000875af19250505080156117b257506040513d601f19601f820116820180604052508101906117af9190612d61565b60015b611857576117be612d9b565b806308c379a00361181a57506117d2612dbd565b806117dd575061181c565b806040517f08c379a00000000000000000000000000000000000000000000000000000000081526004016118119190611d3f565b60405180910390fd5b505b6040517f08c379a000000000000000000000000000000000000000000000000000000000815260040161184e90612ebf565b60405180910390fd5b63f23a6e6160e01b7bffffffffffffffffffffffffffffffffffffffffffffffffffffffff1916817bffffffffffffffffffffffffffffffffffffffffffffffffffffffff1916146118de576040517f08c379a00000000000000000000000000000000000000000000000000000000081526004016118d590612f51565b60405180910390fd5b505b505050505050565b6119078473ffffffffffffffffffffffffffffffffffffffff16611abf565b15611ab7578373ffffffffffffffffffffffffffffffffffffffff1663bc197c8187878686866040518663ffffffff1660e01b815260040161194d959493929190612f71565b6020604051808303816000875af192505050801561198957506040513d601f19601f820116820180604052508101906119869190612d61565b60015b611a2e57611995612d9b565b806308c379a0036119f157506119a9612dbd565b806119b457506119f3565b806040517f08c379a00000000000000000000000000000000000000000000000000000000081526004016119e89190611d3f565b60405180910390fd5b505b6040517f08c379a0000000000000000000000000000000000000000000000000000000008152600401611a2590612ebf565b60405180910390fd5b63bc197c8160e01b7bffffffffffffffffffffffffffffffffffffffffffffffffffffffff1916817bffffffffffffffffffffffffffffffffffffffffffffffffffffffff191614611ab5576040517f08c379a0000000000000000000000000000000000000000000000000000000008152600401611aac90612f51565b60405180910390fd5b505b505050505050565b6000808273ffffffffffffffffffffffffffffffffffffffff163b119050919050565b6000604051905090565b600080fd5b600080fd5b600073ffffffffffffffffffffffffffffffffffffffff82169050919050565b6000611b2182611af6565b9050919050565b611b3181611b16565b8114611b3c57600080fd5b50565b600081359050611b4e81611b28565b92915050565b6000819050919050565b611b6781611b54565b8114611b7257600080fd5b50565b600081359050611b8481611b5e565b92915050565b60008060408385031215611ba157611ba0611aec565b5b6000611baf85828601611b3f565b9250506020611bc085828601611b75565b9150509250929050565b611bd381611b54565b82525050565b6000602082019050611bee6000830184611bca565b92915050565b60007fffffffff0000000000000000000000000000000000000000000000000000000082169050919050565b611c2981611bf4565b8114611c3457600080fd5b50565b600081359050611c4681611c20565b92915050565b600060208284031215611c6257611c61611aec565b5b6000611c7084828501611c37565b91505092915050565b60008115159050919050565b611c8e81611c79565b82525050565b6000602082019050611ca96000830184611c85565b92915050565b600081519050919050565b600082825260208201905092915050565b60005b83811015611ce9578082015181840152602081019050611cce565b60008484015250505050565b6000601f19601f8301169050919050565b6000611d1182611caf565b611d1b8185611cba565b9350611d2b818560208601611ccb565b611d3481611cf5565b840191505092915050565b60006020820190508181036000830152611d598184611d06565b905092915050565b600060208284031215611d7757611d76611aec565b5b6000611d8584828501611b75565b91505092915050565b600080fd5b7f4e487b7100000000000000000000000000000000000000000000000000000000600052604160045260246000fd5b611dcb82611cf5565b810181811067ffffffffffffffff82111715611dea57611de9611d93565b5b80604052505050565b6000611dfd611ae2565b9050611e098282611dc2565b919050565b600067ffffffffffffffff821115611e2957611e28611d93565b5b602082029050602081019050919050565b600080fd5b6000611e52611e4d84611e0e565b611df3565b90508083825260208201905060208402830185811115611e7557611e74611e3a565b5b835b81811015611e9e5780611e8a8882611b75565b845260208401935050602081019050611e77565b5050509392505050565b600082601f830112611ebd57611ebc611d8e565b5b8135611ecd848260208601611e3f565b91505092915050565b600080fd5b600067ffffffffffffffff821115611ef657611ef5611d93565b5b611eff82611cf5565b9050602081019050919050565b82818337600083830152505050565b6000611f2e611f2984611edb565b611df3565b905082815260208101848484011115611f4a57611f49611ed6565b5b611f55848285611f0c565b509392505050565b600082601f830112611f7257611f71611d8e565b5b8135611f82848260208601611f1b565b91505092915050565b600080600080600060a08688031215611fa757611fa6611aec565b5b6000611fb588828901611b3f565b9550506020611fc688828901611b3f565b945050604086013567ffffffffffffffff811115611fe757611fe6611af1565b5b611ff388828901611ea8565b935050606086013567ffffffffffffffff81111561201457612013611af1565b5b61202088828901611ea8565b925050608086013567ffffffffffffffff81111561204157612040611af1565b5b61204d88828901611f5d565b9150509295509295909350565b600067ffffffffffffffff82111561207557612074611d93565b5b602082029050602081019050919050565b60006120996120948461205a565b611df3565b905080838252602082019050602084028301858111156120bc576120bb611e3a565b5b835b818110156120e557806120d18882611b3f565b8452602084019350506020810190506120be565b5050509392505050565b600082601f83011261210457612103611d8e565b5b8135612114848260208601612086565b91505092915050565b6000806040838503121561213457612133611aec565b5b600083013567ffffffffffffffff81111561215257612151611af1565b5b61215e858286016120ef565b925050602083013567ffffffffffffffff81111561217f5761217e611af1565b5b61218b85828601611ea8565b9150509250929050565b600081519050919050565b600082825260208201905092915050565b6000819050602082019050919050565b6121ca81611b54565b82525050565b60006121dc83836121c1565b60208301905092915050565b6000602082019050919050565b600061220082612195565b61220a81856121a0565b9350612215836121b1565b8060005b8381101561224657815161222d88826121d0565b9750612238836121e8565b925050600181019050612219565b5085935050505092915050565b6000602082019050818103600083015261226d81846121f5565b905092915050565b6000819050919050565b61228881612275565b82525050565b60006020820190506122a3600083018461227f565b92915050565b6122b281611c79565b81146122bd57600080fd5b50565b6000813590506122cf816122a9565b92915050565b600080604083850312156122ec576122eb611aec565b5b60006122fa85828601611b3f565b925050602061230b858286016122c0565b9150509250929050565b6000806040838503121561232c5761232b611aec565b5b600061233a85828601611b3f565b925050602061234b85828601611b3f565b9150509250929050565b600080600080600060a0868803121561237157612370611aec565b5b600061237f88828901611b3f565b955050602061239088828901611b3f565b94505060406123a188828901611b75565b93505060606123b288828901611b75565b925050608086013567ffffffffffffffff8111156123d3576123d2611af1565b5b6123df88828901611f5d565b9150509295509295909350565b7f455243313135353a2061646472657373207a65726f206973206e6f742061207660008201527f616c6964206f776e657200000000000000000000000000000000000000000000602082015250565b6000612448602a83611cba565b9150612453826123ec565b604082019050919050565b600060208201905081810360008301526124778161243b565b9050919050565b7f4e487b7100000000000000000000000000000000000000000000000000000000600052602260045260246000fd5b600060028204905060018216806124c557607f821691505b6020821081036124d8576124d761247e565b5b50919050565b600081905092915050565b7f68747470733a2f2f626166796265696532647370336e6c726e6634706e6a627260008201527f6a6e7171756a6678617a78796b656772366268766974336a75726263356b777a60208201527f706b692e697066732e6e667473746f726167652e6c696e6b2f00000000000000604082015250565b600061256b6059836124de565b9150612576826124e9565b605982019050919050565b600061258c82611caf565b61259681856124de565b93506125a6818560208601611ccb565b80840191505092915050565b7f2e6a736f6e000000000000000000000000000000000000000000000000000000600082015250565b60006125e86005836124de565b91506125f3826125b2565b600582019050919050565b60006126098261255e565b91506126158284612581565b9150612620826125db565b915081905092915050565b7f4e6f7420656e6f75676820657468657220746f207075726368617365204e465460008201527f732e000000000000000000000000000000000000000000000000000000000000602082015250565b6000612687602283611cba565b91506126928261262b565b604082019050919050565b600060208201905081810360008301526126b68161267a565b9050919050565b7f455243313135353a2063616c6c6572206973206e6f7420746f6b656e206f776e60008201527f6572206f7220617070726f766564000000000000000000000000000000000000602082015250565b6000612719602e83611cba565b9150612724826126bd565b604082019050919050565b600060208201905081810360008301526127488161270c565b9050919050565b7f455243313135353a206163636f756e747320616e6420696473206c656e67746860008201527f206d69736d617463680000000000000000000000000000000000000000000000602082015250565b60006127ab602983611cba565b91506127b68261274f565b604082019050919050565b600060208201905081810360008301526127da8161279e565b9050919050565b7f4e487b7100000000000000000000000000000000000000000000000000000000600052603260045260246000fd5b7f4e487b7100000000000000000000000000000000000000000000000000000000600052601160045260246000fd5b600061284a82611b54565b91507fffffffffffffffffffffffffffffffffffffffffffffffffffffffffffffffff820361287c5761287b612810565b5b600182019050919050565b7f4e487b7100000000000000000000000000000000000000000000000000000000600052601260045260246000fd5b60006128c182612275565b91506128cc83612275565b9250826128dc576128db612887565b5b600160000383147f80000000000000000000000000000000000000000000000000000000000000008314161561291557612914612810565b5b828205905092915050565b7f455243313135353a206d696e7420746f20746865207a65726f2061646472657360008201527f7300000000000000000000000000000000000000000000000000000000000000602082015250565b600061297c602183611cba565b915061298782612920565b604082019050919050565b600060208201905081810360008301526129ab8161296f565b9050919050565b60006129bd82611b54565b91506129c883611b54565b92508282019050808211156129e0576129df612810565b5b92915050565b60006040820190506129fb6000830185611bca565b612a086020830184611bca565b9392505050565b7f455243313135353a2069647320616e6420616d6f756e7473206c656e6774682060008201527f6d69736d61746368000000000000000000000000000000000000000000000000602082015250565b6000612a6b602883611cba565b9150612a7682612a0f565b604082019050919050565b60006020820190508181036000830152612a9a81612a5e565b9050919050565b7f455243313135353a207472616e7366657220746f20746865207a65726f20616460008201527f6472657373000000000000000000000000000000000000000000000000000000602082015250565b6000612afd602583611cba565b9150612b0882612aa1565b604082019050919050565b60006020820190508181036000830152612b2c81612af0565b9050919050565b7f455243313135353a20696e73756666696369656e742062616c616e636520666f60008201527f72207472616e7366657200000000000000000000000000000000000000000000602082015250565b6000612b8f602a83611cba565b9150612b9a82612b33565b604082019050919050565b60006020820190508181036000830152612bbe81612b82565b9050919050565b60006040820190508181036000830152612bdf81856121f5565b90508181036020830152612bf381846121f5565b90509392505050565b7f455243313135353a2073657474696e6720617070726f76616c2073746174757360008201527f20666f722073656c660000000000000000000000000000000000000000000000602082015250565b6000612c58602983611cba565b9150612c6382612bfc565b604082019050919050565b60006020820190508181036000830152612c8781612c4b565b9050919050565b612c9781611b16565b82525050565b600081519050919050565b600082825260208201905092915050565b6000612cc482612c9d565b612cce8185612ca8565b9350612cde818560208601611ccb565b612ce781611cf5565b840191505092915050565b600060a082019050612d076000830188612c8e565b612d146020830187612c8e565b612d216040830186611bca565b612d2e6060830185611bca565b8181036080830152612d408184612cb9565b90509695505050505050565b600081519050612d5b81611c20565b92915050565b600060208284031215612d7757612d76611aec565b5b6000612d8584828501612d4c565b91505092915050565b60008160e01c9050919050565b600060033d1115612dba5760046000803e612db7600051612d8e565b90505b90565b600060443d10612e4a57612dcf611ae2565b60043d036004823e80513d602482011167ffffffffffffffff82111715612df7575050612e4a565b808201805167ffffffffffffffff811115612e155750505050612e4a565b80602083010160043d038501811115612e32575050505050612e4a565b612e4182602001850186611dc2565b82955050505050505b90565b7f455243313135353a207472616e7366657220746f206e6f6e2d4552433131353560008201527f526563656976657220696d706c656d656e746572000000000000000000000000602082015250565b6000612ea9603483611cba565b9150612eb482612e4d565b604082019050919050565b60006020820190508181036000830152612ed881612e9c565b9050919050565b7f455243313135353a204552433131353552656365697665722072656a6563746560008201527f6420746f6b656e73000000000000000000000000000000000000000000000000602082015250565b6000612f3b602883611cba565b9150612f4682612edf565b604082019050919050565b60006020820190508181036000830152612f6a81612f2e565b9050919050565b600060a082019050612f866000830188612c8e565b612f936020830187612c8e565b8181036040830152612fa581866121f5565b90508181036060830152612fb981856121f5565b90508181036080830152612fcd8184612cb9565b9050969550505050505056fea26469706673582212207f370fbad42aae666512c1ab2f8fc47a6e16c715855b44bc6390871a03beb2ec64736f6c6343000811003368747470733a2f2f626166796265696532647370336e6c726e6634706e6a62726a6e7171756a6678617a78796b656772366268766974336a75726263356b777a706b692e697066732e6e667473746f726167652e6c696e6b2f7b69647d2e6a736f6e",
  "linkReferences": {},
  "deployedLinkReferences": {}
}