{
  "_format": "hh-sol-artifact-1",
  "contractName": "MyERC1155NFT",
  "sourceName": "contracts/MyERC1155NFT.sol",
  "abi": [
    {
      "inputs": [],
      "stateMutability": "nonpayable",
      "type": "constructor"
    },
    {
      "anonymous": false,
      "inputs": [
        {
          "indexed": true,
          "internalType": "address",
          "name": "account",
          "type": "address"
        },
        {
          "indexed": true,
          "internalType": "address",
          "name": "operator",
          "type": "address"
        },
        {
          "indexed": false,
          "internalType": "bool",
          "name": "approved",
          "type": "bool"
        }
      ],
      "name": "ApprovalForAll",
      "type": "event"
    },
    {
      "anonymous": false,
      "inputs": [
        {
          "indexed": true,
          "internalType": "address",
          "name": "operator",
          "type": "address"
        },
        {
          "indexed": true,
          "internalType": "address",
          "name": "from",
          "type": "address"
        },
        {
          "indexed": true,
          "internalType": "address",
          "name": "to",
          "type": "address"
        },
        {
          "indexed": false,
          "internalType": "uint256[]",
          "name": "ids",
          "type": "uint256[]"
        },
        {
          "indexed": false,
          "internalType": "uint256[]",
          "name": "values",
          "type": "uint256[]"
        }
      ],
      "name": "TransferBatch",
      "type": "event"
    },
    {
      "anonymous": false,
      "inputs": [
        {
          "indexed": true,
          "internalType": "address",
          "name": "operator",
          "type": "address"
        },
        {
          "indexed": true,
          "internalType": "address",
          "name": "from",
          "type": "address"
        },
        {
          "indexed": true,
          "internalType": "address",
          "name": "to",
          "type": "address"
        },
        {
          "indexed": false,
          "internalType": "uint256",
          "name": "id",
          "type": "uint256"
        },
        {
          "indexed": false,
          "internalType": "uint256",
          "name": "value",
          "type": "uint256"
        }
      ],
      "name": "TransferSingle",
      "type": "event"
    },
    {
      "anonymous": false,
      "inputs": [
        {
          "indexed": false,
          "internalType": "string",
          "name": "value",
          "type": "string"
        },
        {
          "indexed": true,
          "internalType": "uint256",
          "name": "id",
          "type": "uint256"
        }
      ],
      "name": "URI",
      "type": "event"
    },
    {
      "inputs": [],
      "name": "Ball",
      "outputs": [
        {
          "internalType": "uint256",
          "name": "",
          "type": "uint256"
        }
      ],
      "stateMutability": "view",
      "type": "function"
    },
    {
      "inputs": [],
      "name": "BallPrice",
      "outputs": [
        {
          "internalType": "int256",
          "name": "",
          "type": "int256"
        }
      ],
      "stateMutability": "view",
      "type": "function"
    },
    {
      "inputs": [],
      "name": "PRICE",
      "outputs": [
        {
          "internalType": "uint256",
          "name": "",
          "type": "uint256"
        }
      ],
      "stateMutability": "view",
      "type": "function"
    },
    {
      "inputs": [],
      "name": "Shorts",
      "outputs": [
        {
          "internalType": "uint256",
          "name": "",
          "type": "uint256"
        }
      ],
      "stateMutability": "view",
      "type": "function"
    },
    {
      "inputs": [],
      "name": "ShortsPrice",
      "outputs": [
        {
          "internalType": "int256",
          "name": "",
          "type": "int256"
        }
      ],
      "stateMutability": "view",
      "type": "function"
    },
    {
      "inputs": [
        {
          "internalType": "address",
          "name": "account",
          "type": "address"
        },
        {
          "internalType": "uint256",
          "name": "id",
          "type": "uint256"
        }
      ],
      "name": "balanceOf",
      "outputs": [
        {
          "internalType": "uint256",
          "name": "",
          "type": "uint256"
        }
      ],
      "stateMutability": "view",
      "type": "function"
    },
    {
      "inputs": [
        {
          "internalType": "address[]",
          "name": "accounts",
          "type": "address[]"
        },
        {
          "internalType": "uint256[]",
          "name": "ids",
          "type": "uint256[]"
        }
      ],
      "name": "balanceOfBatch",
      "outputs": [
        {
          "internalType": "uint256[]",
          "name": "",
          "type": "uint256[]"
        }
      ],
      "stateMutability": "view",
      "type": "function"
    },
    {
      "inputs": [],
      "name": "getEthUsd",
      "outputs": [
        {
          "internalType": "int256",
          "name": "",
          "type": "int256"
        }
      ],
      "stateMutability": "view",
      "type": "function"
    },
    {
      "inputs": [
        {
          "internalType": "address",
          "name": "account",
          "type": "address"
        },
        {
          "internalType": "address",
          "name": "operator",
          "type": "address"
        }
      ],
      "name": "isApprovedForAll",
      "outputs": [
        {
          "internalType": "bool",
          "name": "",
          "type": "bool"
        }
      ],
      "stateMutability": "view",
      "type": "function"
    },
    {
      "inputs": [],
      "name": "mintBall",
      "outputs": [],
      "stateMutability": "payable",
      "type": "function"
    },
    {
      "inputs": [],
      "name": "mintShorts",
      "outputs": [],
      "stateMutability": "payable",
      "type": "function"
    },
    {
      "inputs": [],
      "name": "name",
      "outputs": [
        {
          "internalType": "string",
          "name": "",
          "type": "string"
        }
      ],
      "stateMutability": "view",
      "type": "function"
    },
    {
      "inputs": [
        {
          "internalType": "address",
          "name": "from",
          "type": "address"
        },
        {
          "internalType": "address",
          "name": "to",
          "type": "address"
        },
        {
          "internalType": "uint256[]",
          "name": "ids",
          "type": "uint256[]"
        },
        {
          "internalType": "uint256[]",
          "name": "amounts",
          "type": "uint256[]"
        },
        {
          "internalType": "bytes",
          "name": "data",
          "type": "bytes"
        }
      ],
      "name": "safeBatchTransferFrom",
      "outputs": [],
      "stateMutability": "nonpayable",
      "type": "function"
    },
    {
      "inputs": [
        {
          "internalType": "address",
          "name": "from",
          "type": "address"
        },
        {
          "internalType": "address",
          "name": "to",
          "type": "address"
        },
        {
          "internalType": "uint256",
          "name": "id",
          "type": "uint256"
        },
        {
          "internalType": "uint256",
          "name": "amount",
          "type": "uint256"
        },
        {
          "internalType": "bytes",
          "name": "data",
          "type": "bytes"
        }
      ],
      "name": "safeTransferFrom",
      "outputs": [],
      "stateMutability": "nonpayable",
      "type": "function"
    },
    {
      "inputs": [
        {
          "internalType": "address",
          "name": "operator",
          "type": "address"
        },
        {
          "internalType": "bool",
          "name": "approved",
          "type": "bool"
        }
      ],
      "name": "setApprovalForAll",
      "outputs": [],
      "stateMutability": "nonpayable",
      "type": "function"
    },
    {
      "inputs": [
        {
          "internalType": "bytes4",
          "name": "interfaceId",
          "type": "bytes4"
        }
      ],
      "name": "supportsInterface",
      "outputs": [
        {
          "internalType": "bool",
          "name": "",
          "type": "bool"
        }
      ],
      "stateMutability": "view",
      "type": "function"
    },
    {
      "inputs": [
        {
          "internalType": "uint256",
          "name": "_tokenid",
          "type": "uint256"
        }
      ],
      "name": "uri",
      "outputs": [
        {
          "internalType": "string",
          "name": "",
          "type": "string"
        }
      ],
      "stateMutability": "pure",
      "type": "function"
    }
  ],
  "bytecode": "0x60806040526040518060400160405280600e81526020017f576562334261736b657462616c6c000000000000000000000000000000000000815250600390816200004a91906200036f565b503480156200005857600080fd5b506040518060a001604052806062815260200162003585606291396200008481620000e060201b60201c565b5073d4a33860578de61dbabdc8bfdb98fd742fa7028e600460006101000a81548173ffffffffffffffffffffffffffffffffffffffff021916908373ffffffffffffffffffffffffffffffffffffffff16021790555062000456565b8060029081620000f191906200036f565b5050565b600081519050919050565b7f4e487b7100000000000000000000000000000000000000000000000000000000600052604160045260246000fd5b7f4e487b7100000000000000000000000000000000000000000000000000000000600052602260045260246000fd5b600060028204905060018216806200017757607f821691505b6020821081036200018d576200018c6200012f565b5b50919050565b60008190508160005260206000209050919050565b60006020601f8301049050919050565b600082821b905092915050565b600060088302620001f77fffffffffffffffffffffffffffffffffffffffffffffffffffffffffffffffff82620001b8565b620002038683620001b8565b95508019841693508086168417925050509392505050565b6000819050919050565b6000819050919050565b6000620002506200024a62000244846200021b565b62000225565b6200021b565b9050919050565b6000819050919050565b6200026c836200022f565b620002846200027b8262000257565b848454620001c5565b825550505050565b600090565b6200029b6200028c565b620002a881848462000261565b505050565b5b81811015620002d057620002c460008262000291565b600181019050620002ae565b5050565b601f8211156200031f57620002e98162000193565b620002f484620001a8565b8101602085101562000304578190505b6200031c6200031385620001a8565b830182620002ad565b50505b505050565b600082821c905092915050565b6000620003446000198460080262000324565b1980831691505092915050565b60006200035f838362000331565b9150826002028217905092915050565b6200037a82620000f5565b67ffffffffffffffff81111562000396576200039562000100565b5b620003a282546200015e565b620003af828285620002d4565b600060209050601f831160018114620003e75760008415620003d2578287015190505b620003de858262000351565b8655506200044e565b601f198416620003f78662000193565b60005b828110156200042157848901518255600182019150602085019450602081019050620003fa565b868310156200044157848901516200043d601f89168262000331565b8355505b6001600288020188555050505b505050505050565b61311f80620004666000396000f3fe6080604052600436106100fd5760003560e01c80634e1273f411610095578063a22cb46511610064578063a22cb4651461030a578063b08c9d7b14610333578063bb27e0ce1461035e578063e985e9c514610389578063f242432a146103c6576100fd565b80634e1273f41461024c5780635f681f02146102895780638d859f3e146102b45780638ef49838146102df576100fd565b80630e89341c116100d15780630e89341c146101d257806317a51a9b1461020f5780632c496a37146102195780632eb2c2d614610223576100fd565b8062fdd58e1461010257806301ffc9a71461013f57806306fdde031461017c5780630c0f485b146101a7575b600080fd5b34801561010e57600080fd5b5061012960048036038101906101249190611b9c565b6103ef565b6040516101369190611beb565b60405180910390f35b34801561014b57600080fd5b5061016660048036038101906101619190611c5e565b6104b7565b6040516101739190611ca6565b60405180910390f35b34801561018857600080fd5b50610191610599565b60405161019e9190611d51565b60405180910390f35b3480156101b357600080fd5b506101bc610627565b6040516101c99190611beb565b60405180910390f35b3480156101de57600080fd5b506101f960048036038101906101f49190611d73565b61062c565b6040516102069190611d51565b60405180910390f35b61021761065d565b005b6102216106db565b005b34801561022f57600080fd5b5061024a60048036038101906102459190611f9d565b61075a565b005b34801561025857600080fd5b50610273600480360381019061026e919061212f565b6107fb565b6040516102809190612265565b60405180910390f35b34801561029557600080fd5b5061029e610914565b6040516102ab91906122a0565b60405180910390f35b3480156102c057600080fd5b506102c9610923565b6040516102d69190611beb565b60405180910390f35b3480156102eb57600080fd5b506102f461092e565b60405161030191906122a0565b60405180910390f35b34801561031657600080fd5b50610331600480360381019061032c91906122e7565b61093d565b005b34801561033f57600080fd5b50610348610953565b6040516103559190611beb565b60405180910390f35b34801561036a57600080fd5b50610373610958565b60405161038091906122a0565b60405180910390f35b34801561039557600080fd5b506103b060048036038101906103ab9190612327565b6109f9565b6040516103bd9190611ca6565b60405180910390f35b3480156103d257600080fd5b506103ed60048036038101906103e89190612367565b610a8d565b005b60008073ffffffffffffffffffffffffffffffffffffffff168373ffffffffffffffffffffffffffffffffffffffff160361045f576040517f08c379a000000000000000000000000000000000000000000000000000000000815260040161045690612470565b60405180910390fd5b60008083815260200190815260200160002060008473ffffffffffffffffffffffffffffffffffffffff1673ffffffffffffffffffffffffffffffffffffffff16815260200190815260200160002054905092915050565b60007fd9b67a26000000000000000000000000000000000000000000000000000000007bffffffffffffffffffffffffffffffffffffffffffffffffffffffff1916827bffffffffffffffffffffffffffffffffffffffffffffffffffffffff1916148061058257507f0e89341c000000000000000000000000000000000000000000000000000000007bffffffffffffffffffffffffffffffffffffffffffffffffffffffff1916827bffffffffffffffffffffffffffffffffffffffffffffffffffffffff1916145b80610592575061059182610b2e565b5b9050919050565b600380546105a6906124bf565b80601f01602080910402602001604051908101604052809291908181526020018280546105d2906124bf565b801561061f5780601f106105f45761010080835404028352916020019161061f565b820191906000526020600020905b81548152906001019060200180831161060257829003601f168201915b505050505081565b600081565b606061063782610b98565b6040516020016106479190612610565b6040516020818303038152906040529050919050565b610665610958565b6a04085ccd059a83bd8e400061067b919061269b565b3412156106bd576040517f08c379a00000000000000000000000000000000000000000000000000000000081526004016106b490612777565b60405180910390fd5b6106d93360018060405180602001604052806000815250610c66565b565b6106e3610958565b6a10000000000000000000006106f9919061269b565b34121561073b576040517f08c379a000000000000000000000000000000000000000000000000000000000815260040161073290612777565b60405180910390fd5b610758336000600160405180602001604052806000815250610c66565b565b610762610e16565b73ffffffffffffffffffffffffffffffffffffffff168573ffffffffffffffffffffffffffffffffffffffff1614806107a857506107a7856107a2610e16565b6109f9565b5b6107e7576040517f08c379a00000000000000000000000000000000000000000000000000000000081526004016107de90612809565b60405180910390fd5b6107f48585858585610e1e565b5050505050565b60608151835114610841576040517f08c379a00000000000000000000000000000000000000000000000000000000081526004016108389061289b565b60405180910390fd5b6000835167ffffffffffffffff81111561085e5761085d611da5565b5b60405190808252806020026020018201604052801561088c5781602001602082028036833780820191505090505b50905060005b8451811015610909576108d98582815181106108b1576108b06128bb565b5b60200260200101518583815181106108cc576108cb6128bb565b5b60200260200101516103ef565b8282815181106108ec576108eb6128bb565b5b60200260200101818152505080610902906128ea565b9050610892565b508091505092915050565b6a100000000000000000000081565b662386f26fc1000081565b6a04085ccd059a83bd8e400081565b61094f610948610e16565b838361113f565b5050565b600181565b600080600460009054906101000a900473ffffffffffffffffffffffffffffffffffffffff1673ffffffffffffffffffffffffffffffffffffffff1663feaf968c6040518163ffffffff1660e01b815260040160a060405180830381865afa1580156109c8573d6000803e3d6000fd5b505050506040513d601f19601f820116820180604052508101906109ec91906129b5565b5050509150508091505090565b6000600160008473ffffffffffffffffffffffffffffffffffffffff1673ffffffffffffffffffffffffffffffffffffffff16815260200190815260200160002060008373ffffffffffffffffffffffffffffffffffffffff1673ffffffffffffffffffffffffffffffffffffffff16815260200190815260200160002060009054906101000a900460ff16905092915050565b610a95610e16565b73ffffffffffffffffffffffffffffffffffffffff168573ffffffffffffffffffffffffffffffffffffffff161480610adb5750610ada85610ad5610e16565b6109f9565b5b610b1a576040517f08c379a0000000000000000000000000000000000000000000000000000000008152600401610b1190612809565b60405180910390fd5b610b2785858585856112ab565b5050505050565b60007f01ffc9a7000000000000000000000000000000000000000000000000000000007bffffffffffffffffffffffffffffffffffffffffffffffffffffffff1916827bffffffffffffffffffffffffffffffffffffffffffffffffffffffff1916149050919050565b606060006001610ba784611546565b01905060008167ffffffffffffffff811115610bc657610bc5611da5565b5b6040519080825280601f01601f191660200182016040528015610bf85781602001600182028036833780820191505090505b509050600082602001820190505b600115610c5b578080600190039150507f3031323334353637383961626364656600000000000000000000000000000000600a86061a8153600a8581610c4f57610c4e61263d565b5b04945060008503610c06575b819350505050919050565b600073ffffffffffffffffffffffffffffffffffffffff168473ffffffffffffffffffffffffffffffffffffffff1603610cd5576040517f08c379a0000000000000000000000000000000000000000000000000000000008152600401610ccc90612aa2565b60405180910390fd5b6000610cdf610e16565b90506000610cec85611699565b90506000610cf985611699565b9050610d0a83600089858589611713565b8460008088815260200190815260200160002060008973ffffffffffffffffffffffffffffffffffffffff1673ffffffffffffffffffffffffffffffffffffffff1681526020019081526020016000206000828254610d699190612ac2565b925050819055508673ffffffffffffffffffffffffffffffffffffffff16600073ffffffffffffffffffffffffffffffffffffffff168473ffffffffffffffffffffffffffffffffffffffff167fc3d58168c5ae7397731d063d5bbf3d657854427343f4c083240f7aacaa2d0f628989604051610de7929190612af6565b60405180910390a4610dfe8360008985858961171b565b610e0d83600089898989611723565b50505050505050565b600033905090565b8151835114610e62576040517f08c379a0000000000000000000000000000000000000000000000000000000008152600401610e5990612b91565b60405180910390fd5b600073ffffffffffffffffffffffffffffffffffffffff168473ffffffffffffffffffffffffffffffffffffffff1603610ed1576040517f08c379a0000000000000000000000000000000000000000000000000000000008152600401610ec890612c23565b60405180910390fd5b6000610edb610e16565b9050610eeb818787878787611713565b60005b845181101561109c576000858281518110610f0c57610f0b6128bb565b5b602002602001015190506000858381518110610f2b57610f2a6128bb565b5b60200260200101519050600080600084815260200190815260200160002060008b73ffffffffffffffffffffffffffffffffffffffff1673ffffffffffffffffffffffffffffffffffffffff16815260200190815260200160002054905081811015610fcc576040517f08c379a0000000000000000000000000000000000000000000000000000000008152600401610fc390612cb5565b60405180910390fd5b81810360008085815260200190815260200160002060008c73ffffffffffffffffffffffffffffffffffffffff1673ffffffffffffffffffffffffffffffffffffffff168152602001908152602001600020819055508160008085815260200190815260200160002060008b73ffffffffffffffffffffffffffffffffffffffff1673ffffffffffffffffffffffffffffffffffffffff16815260200190815260200160002060008282546110819190612ac2565b9250508190555050505080611095906128ea565b9050610eee565b508473ffffffffffffffffffffffffffffffffffffffff168673ffffffffffffffffffffffffffffffffffffffff168273ffffffffffffffffffffffffffffffffffffffff167f4a39dc06d4c0dbc64b70af90fd698a233a518aa5d07e595d983b8c0526c8f7fb8787604051611113929190612cd5565b60405180910390a461112981878787878761171b565b6111378187878787876118fa565b505050505050565b8173ffffffffffffffffffffffffffffffffffffffff168373ffffffffffffffffffffffffffffffffffffffff16036111ad576040517f08c379a00000000000000000000000000000000000000000000000000000000081526004016111a490612d7e565b60405180910390fd5b80600160008573ffffffffffffffffffffffffffffffffffffffff1673ffffffffffffffffffffffffffffffffffffffff16815260200190815260200160002060008473ffffffffffffffffffffffffffffffffffffffff1673ffffffffffffffffffffffffffffffffffffffff16815260200190815260200160002060006101000a81548160ff0219169083151502179055508173ffffffffffffffffffffffffffffffffffffffff168373ffffffffffffffffffffffffffffffffffffffff167f17307eab39ab6107e8899845ad3d59bd9653f200f220920489ca2b5937696c318360405161129e9190611ca6565b60405180910390a3505050565b600073ffffffffffffffffffffffffffffffffffffffff168473ffffffffffffffffffffffffffffffffffffffff160361131a576040517f08c379a000000000000000000000000000000000000000000000000000000000815260040161131190612c23565b60405180910390fd5b6000611324610e16565b9050600061133185611699565b9050600061133e85611699565b905061134e838989858589611713565b600080600088815260200190815260200160002060008a73ffffffffffffffffffffffffffffffffffffffff1673ffffffffffffffffffffffffffffffffffffffff168152602001908152602001600020549050858110156113e5576040517f08c379a00000000000000000000000000000000000000000000000000000000081526004016113dc90612cb5565b60405180910390fd5b85810360008089815260200190815260200160002060008b73ffffffffffffffffffffffffffffffffffffffff1673ffffffffffffffffffffffffffffffffffffffff168152602001908152602001600020819055508560008089815260200190815260200160002060008a73ffffffffffffffffffffffffffffffffffffffff1673ffffffffffffffffffffffffffffffffffffffff168152602001908152602001600020600082825461149a9190612ac2565b925050819055508773ffffffffffffffffffffffffffffffffffffffff168973ffffffffffffffffffffffffffffffffffffffff168573ffffffffffffffffffffffffffffffffffffffff167fc3d58168c5ae7397731d063d5bbf3d657854427343f4c083240f7aacaa2d0f628a8a604051611517929190612af6565b60405180910390a461152d848a8a86868a61171b565b61153b848a8a8a8a8a611723565b505050505050505050565b600080600090507a184f03e93ff9f4daa797ed6e38ed64bf6a1f01000000000000000083106115a4577a184f03e93ff9f4daa797ed6e38ed64bf6a1f010000000000000000838161159a5761159961263d565b5b0492506040810190505b6d04ee2d6d415b85acef810000000083106115e1576d04ee2d6d415b85acef810000000083816115d7576115d661263d565b5b0492506020810190505b662386f26fc10000831061161057662386f26fc1000083816116065761160561263d565b5b0492506010810190505b6305f5e1008310611639576305f5e100838161162f5761162e61263d565b5b0492506008810190505b612710831061165e5761271083816116545761165361263d565b5b0492506004810190505b6064831061168157606483816116775761167661263d565b5b0492506002810190505b600a8310611690576001810190505b80915050919050565b60606000600167ffffffffffffffff8111156116b8576116b7611da5565b5b6040519080825280602002602001820160405280156116e65781602001602082028036833780820191505090505b50905082816000815181106116fe576116fd6128bb565b5b60200260200101818152505080915050919050565b505050505050565b505050505050565b6117428473ffffffffffffffffffffffffffffffffffffffff16611ad1565b156118f2578373ffffffffffffffffffffffffffffffffffffffff1663f23a6e6187878686866040518663ffffffff1660e01b8152600401611788959493929190612e02565b6020604051808303816000875af19250505080156117c457506040513d601f19601f820116820180604052508101906117c19190612e71565b60015b611869576117d0612eab565b806308c379a00361182c57506117e4612ecd565b806117ef575061182e565b806040517f08c379a00000000000000000000000000000000000000000000000000000000081526004016118239190611d51565b60405180910390fd5b505b6040517f08c379a000000000000000000000000000000000000000000000000000000000815260040161186090612fcf565b60405180910390fd5b63f23a6e6160e01b7bffffffffffffffffffffffffffffffffffffffffffffffffffffffff1916817bffffffffffffffffffffffffffffffffffffffffffffffffffffffff1916146118f0576040517f08c379a00000000000000000000000000000000000000000000000000000000081526004016118e790613061565b60405180910390fd5b505b505050505050565b6119198473ffffffffffffffffffffffffffffffffffffffff16611ad1565b15611ac9578373ffffffffffffffffffffffffffffffffffffffff1663bc197c8187878686866040518663ffffffff1660e01b815260040161195f959493929190613081565b6020604051808303816000875af192505050801561199b57506040513d601f19601f820116820180604052508101906119989190612e71565b60015b611a40576119a7612eab565b806308c379a003611a0357506119bb612ecd565b806119c65750611a05565b806040517f08c379a00000000000000000000000000000000000000000000000000000000081526004016119fa9190611d51565b60405180910390fd5b505b6040517f08c379a0000000000000000000000000000000000000000000000000000000008152600401611a3790612fcf565b60405180910390fd5b63bc197c8160e01b7bffffffffffffffffffffffffffffffffffffffffffffffffffffffff1916817bffffffffffffffffffffffffffffffffffffffffffffffffffffffff191614611ac7576040517f08c379a0000000000000000000000000000000000000000000000000000000008152600401611abe90613061565b60405180910390fd5b505b505050505050565b6000808273ffffffffffffffffffffffffffffffffffffffff163b119050919050565b6000604051905090565b600080fd5b600080fd5b600073ffffffffffffffffffffffffffffffffffffffff82169050919050565b6000611b3382611b08565b9050919050565b611b4381611b28565b8114611b4e57600080fd5b50565b600081359050611b6081611b3a565b92915050565b6000819050919050565b611b7981611b66565b8114611b8457600080fd5b50565b600081359050611b9681611b70565b92915050565b60008060408385031215611bb357611bb2611afe565b5b6000611bc185828601611b51565b9250506020611bd285828601611b87565b9150509250929050565b611be581611b66565b82525050565b6000602082019050611c006000830184611bdc565b92915050565b60007fffffffff0000000000000000000000000000000000000000000000000000000082169050919050565b611c3b81611c06565b8114611c4657600080fd5b50565b600081359050611c5881611c32565b92915050565b600060208284031215611c7457611c73611afe565b5b6000611c8284828501611c49565b91505092915050565b60008115159050919050565b611ca081611c8b565b82525050565b6000602082019050611cbb6000830184611c97565b92915050565b600081519050919050565b600082825260208201905092915050565b60005b83811015611cfb578082015181840152602081019050611ce0565b60008484015250505050565b6000601f19601f8301169050919050565b6000611d2382611cc1565b611d2d8185611ccc565b9350611d3d818560208601611cdd565b611d4681611d07565b840191505092915050565b60006020820190508181036000830152611d6b8184611d18565b905092915050565b600060208284031215611d8957611d88611afe565b5b6000611d9784828501611b87565b91505092915050565b600080fd5b7f4e487b7100000000000000000000000000000000000000000000000000000000600052604160045260246000fd5b611ddd82611d07565b810181811067ffffffffffffffff82111715611dfc57611dfb611da5565b5b80604052505050565b6000611e0f611af4565b9050611e1b8282611dd4565b919050565b600067ffffffffffffffff821115611e3b57611e3a611da5565b5b602082029050602081019050919050565b600080fd5b6000611e64611e5f84611e20565b611e05565b90508083825260208201905060208402830185811115611e8757611e86611e4c565b5b835b81811015611eb05780611e9c8882611b87565b845260208401935050602081019050611e89565b5050509392505050565b600082601f830112611ecf57611ece611da0565b5b8135611edf848260208601611e51565b91505092915050565b600080fd5b600067ffffffffffffffff821115611f0857611f07611da5565b5b611f1182611d07565b9050602081019050919050565b82818337600083830152505050565b6000611f40611f3b84611eed565b611e05565b905082815260208101848484011115611f5c57611f5b611ee8565b5b611f67848285611f1e565b509392505050565b600082601f830112611f8457611f83611da0565b5b8135611f94848260208601611f2d565b91505092915050565b600080600080600060a08688031215611fb957611fb8611afe565b5b6000611fc788828901611b51565b9550506020611fd888828901611b51565b945050604086013567ffffffffffffffff811115611ff957611ff8611b03565b5b61200588828901611eba565b935050606086013567ffffffffffffffff81111561202657612025611b03565b5b61203288828901611eba565b925050608086013567ffffffffffffffff81111561205357612052611b03565b5b61205f88828901611f6f565b9150509295509295909350565b600067ffffffffffffffff82111561208757612086611da5565b5b602082029050602081019050919050565b60006120ab6120a68461206c565b611e05565b905080838252602082019050602084028301858111156120ce576120cd611e4c565b5b835b818110156120f757806120e38882611b51565b8452602084019350506020810190506120d0565b5050509392505050565b600082601f83011261211657612115611da0565b5b8135612126848260208601612098565b91505092915050565b6000806040838503121561214657612145611afe565b5b600083013567ffffffffffffffff81111561216457612163611b03565b5b61217085828601612101565b925050602083013567ffffffffffffffff81111561219157612190611b03565b5b61219d85828601611eba565b9150509250929050565b600081519050919050565b600082825260208201905092915050565b6000819050602082019050919050565b6121dc81611b66565b82525050565b60006121ee83836121d3565b60208301905092915050565b6000602082019050919050565b6000612212826121a7565b61221c81856121b2565b9350612227836121c3565b8060005b8381101561225857815161223f88826121e2565b975061224a836121fa565b92505060018101905061222b565b5085935050505092915050565b6000602082019050818103600083015261227f8184612207565b905092915050565b6000819050919050565b61229a81612287565b82525050565b60006020820190506122b56000830184612291565b92915050565b6122c481611c8b565b81146122cf57600080fd5b50565b6000813590506122e1816122bb565b92915050565b600080604083850312156122fe576122fd611afe565b5b600061230c85828601611b51565b925050602061231d858286016122d2565b9150509250929050565b6000806040838503121561233e5761233d611afe565b5b600061234c85828601611b51565b925050602061235d85828601611b51565b9150509250929050565b600080600080600060a0868803121561238357612382611afe565b5b600061239188828901611b51565b95505060206123a288828901611b51565b94505060406123b388828901611b87565b93505060606123c488828901611b87565b925050608086013567ffffffffffffffff8111156123e5576123e4611b03565b5b6123f188828901611f6f565b9150509295509295909350565b7f455243313135353a2061646472657373207a65726f206973206e6f742061207660008201527f616c6964206f776e657200000000000000000000000000000000000000000000602082015250565b600061245a602a83611ccc565b9150612465826123fe565b604082019050919050565b600060208201905081810360008301526124898161244d565b9050919050565b7f4e487b7100000000000000000000000000000000000000000000000000000000600052602260045260246000fd5b600060028204905060018216806124d757607f821691505b6020821081036124ea576124e9612490565b5b50919050565b600081905092915050565b7f68747470733a2f2f626166796265696532647370336e6c726e6634706e6a627260008201527f6a6e7171756a6678617a78796b656772366268766974336a75726263356b777a60208201527f706b692e697066732e6e667473746f726167652e6c696e6b2f00000000000000604082015250565b600061257d6059836124f0565b9150612588826124fb565b605982019050919050565b600061259e82611cc1565b6125a881856124f0565b93506125b8818560208601611cdd565b80840191505092915050565b7f2e6a736f6e000000000000000000000000000000000000000000000000000000600082015250565b60006125fa6005836124f0565b9150612605826125c4565b600582019050919050565b600061261b82612570565b91506126278284612593565b9150612632826125ed565b915081905092915050565b7f4e487b7100000000000000000000000000000000000000000000000000000000600052601260045260246000fd5b7f4e487b7100000000000000000000000000000000000000000000000000000000600052601160045260246000fd5b60006126a682612287565b91506126b183612287565b9250826126c1576126c061263d565b5b600160000383147f8000000000000000000000000000000000000000000000000000000000000000831416156126fa576126f961266c565b5b828205905092915050565b7f4e6f7420656e6f75676820657468657220746f207075726368617365204e465460008201527f732e000000000000000000000000000000000000000000000000000000000000602082015250565b6000612761602283611ccc565b915061276c82612705565b604082019050919050565b6000602082019050818103600083015261279081612754565b9050919050565b7f455243313135353a2063616c6c6572206973206e6f7420746f6b656e206f776e60008201527f6572206f7220617070726f766564000000000000000000000000000000000000602082015250565b60006127f3602e83611ccc565b91506127fe82612797565b604082019050919050565b60006020820190508181036000830152612822816127e6565b9050919050565b7f455243313135353a206163636f756e747320616e6420696473206c656e67746860008201527f206d69736d617463680000000000000000000000000000000000000000000000602082015250565b6000612885602983611ccc565b915061289082612829565b604082019050919050565b600060208201905081810360008301526128b481612878565b9050919050565b7f4e487b7100000000000000000000000000000000000000000000000000000000600052603260045260246000fd5b60006128f582611b66565b91507fffffffffffffffffffffffffffffffffffffffffffffffffffffffffffffffff82036129275761292661266c565b5b600182019050919050565b600069ffffffffffffffffffff82169050919050565b61295181612932565b811461295c57600080fd5b50565b60008151905061296e81612948565b92915050565b61297d81612287565b811461298857600080fd5b50565b60008151905061299a81612974565b92915050565b6000815190506129af81611b70565b92915050565b600080600080600060a086880312156129d1576129d0611afe565b5b60006129df8882890161295f565b95505060206129f08882890161298b565b9450506040612a01888289016129a0565b9350506060612a12888289016129a0565b9250506080612a238882890161295f565b9150509295509295909350565b7f455243313135353a206d696e7420746f20746865207a65726f2061646472657360008201527f7300000000000000000000000000000000000000000000000000000000000000602082015250565b6000612a8c602183611ccc565b9150612a9782612a30565b604082019050919050565b60006020820190508181036000830152612abb81612a7f565b9050919050565b6000612acd82611b66565b9150612ad883611b66565b9250828201905080821115612af057612aef61266c565b5b92915050565b6000604082019050612b0b6000830185611bdc565b612b186020830184611bdc565b9392505050565b7f455243313135353a2069647320616e6420616d6f756e7473206c656e6774682060008201527f6d69736d61746368000000000000000000000000000000000000000000000000602082015250565b6000612b7b602883611ccc565b9150612b8682612b1f565b604082019050919050565b60006020820190508181036000830152612baa81612b6e565b9050919050565b7f455243313135353a207472616e7366657220746f20746865207a65726f20616460008201527f6472657373000000000000000000000000000000000000000000000000000000602082015250565b6000612c0d602583611ccc565b9150612c1882612bb1565b604082019050919050565b60006020820190508181036000830152612c3c81612c00565b9050919050565b7f455243313135353a20696e73756666696369656e742062616c616e636520666f60008201527f72207472616e7366657200000000000000000000000000000000000000000000602082015250565b6000612c9f602a83611ccc565b9150612caa82612c43565b604082019050919050565b60006020820190508181036000830152612cce81612c92565b9050919050565b60006040820190508181036000830152612cef8185612207565b90508181036020830152612d038184612207565b90509392505050565b7f455243313135353a2073657474696e6720617070726f76616c2073746174757360008201527f20666f722073656c660000000000000000000000000000000000000000000000602082015250565b6000612d68602983611ccc565b9150612d7382612d0c565b604082019050919050565b60006020820190508181036000830152612d9781612d5b565b9050919050565b612da781611b28565b82525050565b600081519050919050565b600082825260208201905092915050565b6000612dd482612dad565b612dde8185612db8565b9350612dee818560208601611cdd565b612df781611d07565b840191505092915050565b600060a082019050612e176000830188612d9e565b612e246020830187612d9e565b612e316040830186611bdc565b612e3e6060830185611bdc565b8181036080830152612e508184612dc9565b90509695505050505050565b600081519050612e6b81611c32565b92915050565b600060208284031215612e8757612e86611afe565b5b6000612e9584828501612e5c565b91505092915050565b60008160e01c9050919050565b600060033d1115612eca5760046000803e612ec7600051612e9e565b90505b90565b600060443d10612f5a57612edf611af4565b60043d036004823e80513d602482011167ffffffffffffffff82111715612f07575050612f5a565b808201805167ffffffffffffffff811115612f255750505050612f5a565b80602083010160043d038501811115612f42575050505050612f5a565b612f5182602001850186611dd4565b82955050505050505b90565b7f455243313135353a207472616e7366657220746f206e6f6e2d4552433131353560008201527f526563656976657220696d706c656d656e746572000000000000000000000000602082015250565b6000612fb9603483611ccc565b9150612fc482612f5d565b604082019050919050565b60006020820190508181036000830152612fe881612fac565b9050919050565b7f455243313135353a204552433131353552656365697665722072656a6563746560008201527f6420746f6b656e73000000000000000000000000000000000000000000000000602082015250565b600061304b602883611ccc565b915061305682612fef565b604082019050919050565b6000602082019050818103600083015261307a8161303e565b9050919050565b600060a0820190506130966000830188612d9e565b6130a36020830187612d9e565b81810360408301526130b58186612207565b905081810360608301526130c98185612207565b905081810360808301526130dd8184612dc9565b9050969550505050505056fea26469706673582212206c814f32a4d3e9b73cca5cba481a1f52ed6da03406fb50523a212f74bf4ea12f64736f6c6343000811003368747470733a2f2f626166796265696532647370336e6c726e6634706e6a62726a6e7171756a6678617a78796b656772366268766974336a75726263356b777a706b692e697066732e6e667473746f726167652e6c696e6b2f7b69647d2e6a736f6e",
  "linkReferences": {},
  "deployedLinkReferences": {}
}